:100000000C9487000C94B8000C94B8000C94B800C1
:100010000C94B8000C94B8000C94B8000C94B80080
:100020000C94B8000C94B8000C94B8000C94B80070
:100030000C94B8000C94B8000C94B8000C94B80060
:100040000C94B8000C94B8000C94B8000C94B80050
:100050000C94B8000C94B8000C94B8000C94CD002B
:100060000C94B8000C94D8010C940E020C94B800B7
:100070000C94B8000C94B8000C94B8000C94B80020
:100080000C94B8000C94B8000C94B8000C94B80010
:100090000C94B8000C94B8000C94B8000C94B80000
:1000A0000C94B8000C94B8000C94B8000C94B800F0
:1000B0000C94B8000C94B8000C94B8000C94B800E0
:1000C0000C94B8000C94B8000C94B8000C94B800D0
:1000D0000C94B8000C94B8000C94B8000C94B800C0
:1000E0000C94B8000C9499020C9442020C941203E4
:1000F0000C9432030C94AD020C94BC020C947F025D
:100100000C9438020C948B020C94DB0342021124F1
:100110001FBECFEFD1E2DEBFCDBF00E00CBF12E0CB
:10012000A0E0B2E0EEE6F8E000E00BBF02C007900E
:100130000D92A231B107D9F722E0A2E1B2E001C0ED
:100140001D92A83BB207E1F710E0C7E8D0E000E05D
:1001500006C021970109802FFE010E942D04C63898
:10016000D10780E00807A9F70E9470020C940804E8
:100170000C94000068EE73E080E090E00E943C0187
:10018000F9CF26E040E052EC61E070E08BE192E0D4
:100190000E9479030E94BA0008951F920F920FB631
:1001A0000F9211242F933F938F939F93AF93BF93FD
:1001B0008091130290911402A0911502B091160241
:1001C0003091120223E0230F2D3758F50196A11D1F
:1001D000B11D209312028093130290931402A093F6
:1001E0001502B09316028091170290911802A09107
:1001F0001902B0911A020196A11DB11D8093170238
:1002000090931802A0931902B0931A02BF91AF9174
:100210009F918F913F912F910F900FBE0F901F9044
:10022000189526E8230F0296A11DB11DD2CF3FB726
:10023000F8948091170290911802A0911902B09140
:100240001A0226B5A89B05C02F3F19F00196A11DE3
:10025000B11D3FBFBA2FA92F982F8827BC01CD0110
:10026000620F711D811D911D42E0660F771F881F6F
:10027000991F4A95D1F708958F929F92AF92BF929E
:10028000CF92DF92EF92FF926B017C010E941701E7
:100290004B015C01C114D104E104F104E9F00E94B6
:1002A000D7010E941701681979098A099B09683EDC
:1002B00073408105910570F321E0C21AD108E1086D
:1002C000F10888EE880E83E0981EA11CB11CC114B1
:1002D000D104E104F10429F7FF90EF90DF90CF9073
:1002E000BF90AF909F908F900895789484B582606E
:1002F00084BD84B5816084BD85B5826085BD85B5CA
:10030000816085BDEEE6F0E0808181608083E1E878
:10031000F0E01082808182608083808181608083B0
:10032000E0E8F0E0808181608083E1EBF0E08081B3
:1003300084608083E0EBF0E0808181608083E1E98C
:10034000F0E0808182608083808181608083E0E949
:10035000F0E0808181608083E1EAF0E0808182606A
:100360008083808181608083E0EAF0E08081816029
:100370008083E1E2F1E0808182608083808181601E
:100380008083E0E2F1E0808181608083EAE7F0E051
:1003900080818460808380818260808380818160AD
:1003A00080838081806880831092C10008950895C1
:1003B0001F920F920FB60F9211240BB60F922F932C
:1003C0008F939F93EF93FF93E0912B02F0912C0278
:1003D0008081E0913102F091320282FD1DC0908156
:1003E000809134028F5F8F7320913502821741F024
:1003F000E0913402F0E0E55EFD4F958F809334028A
:10040000FF91EF919F918F912F910F900BBE0F90C5
:100410000FBE0F901F9018958081F2CF1F920F9200
:100420000FB60F9211240BB60F922F933F934F9359
:100430005F936F937F938F939F93AF93BF93EF934C
:10044000FF938BE192E00E94F102FF91EF91BF9147
:10045000AF919F918F917F916F915F914F913F915C
:100460002F910F900BBE0F900FBE0F901F901895FD
:100470008BE192E00E947F0221E0892B09F420E0C9
:10048000822F0895EBE1F2E01382128288EE93E06E
:10049000A0E0B0E084839583A683B78384E092E0F4
:1004A0009183808385EC90E09587848784EC90E04D
:1004B0009787868780EC90E0918B808B81EC90E031
:1004C000938B828B82EC90E0958B848B86EC90E012
:1004D000978B868B118E128E138E148E089508952D
:1004E0000E9475010E946F020E94C100CCEBD2E015
:1004F0000E94CC002097E1F30E94BC02F9CFFC01DE
:10050000918D228D892F90E0805C9F4F821B9109F5
:100510008F7399270895FC01918D828D981731F082
:10052000828DE80FF11D858D90E008958FEF9FEF8C
:100530000895FC01918D828D981761F0A28DAE0F08
:10054000BF2FB11D5D968C91928D9F5F9F73928F8F
:1005500090E008958FEF9FEF0895FC01538D448D37
:10056000252F30E0842F90E0821B930B541710F05E
:10057000CF9608950197089588E392E0892B49F07A
:1005800080E090E0892B29F00E94380281110E94BE
:10059000000080E090E0892B49F080E090E0892B1A
:1005A00029F00E94000081110E94000080E090E08C
:1005B000892B49F080E090E0892B29F00E9400000F
:1005C00081110E94000080E090E0892B49F080E0DA
:1005D00090E0892B29F00E94000081110C9400000A
:1005E0000895FC01A48DA80FB92FB11DA35ABF4FC8
:1005F0002C91848D90E001968F739927848FA68922
:10060000B7892C93A089B1898C9180648C93938D48
:10061000848D981306C00288F389E02D80818F7D38
:1006200080830895CF93DF93EC01888D8823B9F000
:10063000AA89BB89E889F9898C9185FD03C08081ED
:1006400086FD0DC00FB607FCF7CF8C9185FFF2CF6A
:10065000808185FFEDCFCE010E94F102E9CFDF91CD
:10066000CF910895EF92FF920F931F93CF93DF9353
:10067000EC01F62E81E0888F9B8D8C8D981316C02F
:10068000E889F989808185FF11C0EE89FF8960833F
:10069000E889F98980818064808381E090E0DF913E
:1006A000CF911F910F91FF90EF9008950B8D10E067
:1006B0000F5F1F4F0F731127E02E8C8D8E110CC012
:1006C0000FB607FCFACFE889F989808185FFF5CF5D
:1006D000CE010E94F102F1CFEB8DEC0FFD2FF11D49
:1006E000E35AFF4FF0820B8FEA89FB898081806299
:1006F000D3CFCF92DF92EF92FF921F93CF93DF93EE
:10070000EC016A017B01122FE889F98982E080837C
:10071000C11481EED806E104F104A1F060E079E0B3
:100720008DE390E0A70196010E940B04215031094E
:10073000410951095695479537952795211580E12F
:10074000380798F0E889F989108260E874E88EE14A
:1007500090E0A70196010E940B0421503109410944
:1007600051095695479537952795EC85FD8530833A
:10077000EE85FF852083188EEC89FD891083EA8938
:10078000FB89808180618083EA89FB898081886020
:100790008083EA89FB89808180688083EA89FB897C
:1007A00080818F7D8083DF91CF911F91FF90EF90AB
:1007B000DF90CF900895AF92BF92CF92DF92EF92E9
:1007C000FF920F931F93CF93DF936C017B018B01FB
:1007D000040F151FEB015E01AE18BF08C017D1074B
:1007E00059F06991D601ED91FC910190F081E02DD5
:1007F000C6011995892B79F7C501DF91CF911F911A
:100800000F91FF90EF90DF90CF90BF90AF90089541
:10081000F8940C943504A1E21A2EAA1BBB1BFD010F
:100820000DC0AA1FBB1FEE1FFF1FA217B307E407CF
:10083000F50720F0A21BB30BE40BF50B661F771F27
:10084000881F991F1A9469F7609570958095909507
:100850009B01AC01BD01CF010895EE0FFF1F881F62
:0E0860008BBF0790F691E02D1994F894FFCF0E
:10086E00000000003203DB03AD0212037F02990287
:02087E008B02EB
:00000001FF
